{
  "contractName": "Identity",
  "abi": [
    {
      "anonymous": false,
      "inputs": [
        {
          "indexed": true,
          "internalType": "address",
          "name": "user",
          "type": "address"
        },
        {
          "indexed": false,
          "internalType": "string",
          "name": "name",
          "type": "string"
        },
        {
          "indexed": false,
          "internalType": "string",
          "name": "email",
          "type": "string"
        }
      ],
      "name": "IdentityRegistered",
      "type": "event"
    },
    {
      "inputs": [
        {
          "internalType": "address",
          "name": "",
          "type": "address"
        }
      ],
      "name": "registeredAddresses",
      "outputs": [
        {
          "internalType": "bool",
          "name": "",
          "type": "bool"
        }
      ],
      "stateMutability": "view",
      "type": "function",
      "constant": true
    },
    {
      "inputs": [
        {
          "internalType": "bytes32",
          "name": "",
          "type": "bytes32"
        }
      ],
      "name": "users",
      "outputs": [
        {
          "internalType": "bool",
          "name": "isRegistered",
          "type": "bool"
        },
        {
          "internalType": "string",
          "name": "name",
          "type": "string"
        },
        {
          "internalType": "string",
          "name": "email",
          "type": "string"
        }
      ],
      "stateMutability": "view",
      "type": "function",
      "constant": true
    },
    {
      "inputs": [
        {
          "internalType": "string",
          "name": "_name",
          "type": "string"
        },
        {
          "internalType": "string",
          "name": "_email",
          "type": "string"
        }
      ],
      "name": "registerIdentity",
      "outputs": [],
      "stateMutability": "nonpayable",
      "type": "function"
    },
    {
      "inputs": [
        {
          "internalType": "string",
          "name": "_name",
          "type": "string"
        },
        {
          "internalType": "string",
          "name": "_email",
          "type": "string"
        }
      ],
      "name": "displayDetails",
      "outputs": [
        {
          "internalType": "bool",
          "name": "",
          "type": "bool"
        },
        {
          "internalType": "string",
          "name": "",
          "type": "string"
        },
        {
          "internalType": "string",
          "name": "",
          "type": "string"
        }
      ],
      "stateMutability": "view",
      "type": "function",
      "constant": true
    }
  ],
  "bytecode": "0x608060405234801561001057600080fd5b50610eb1806100206000396000f3fe608060405234801561001057600080fd5b506004361061004c5760003560e01c80630be8293f1461005157806376b22eac1461006d578063bac43c6f1461009d578063cea6ab98146100cf575b600080fd5b61006b600480360381019061006691906107c4565b610101565b005b6100876004803603810190610082919061089a565b610330565b60405161009491906108e2565b60405180910390f35b6100b760048036038101906100b291906107c4565b610350565b6040516100c69392919061097c565b60405180910390f35b6100e960048036038101906100e491906109f7565b6104f0565b6040516100f89392919061097c565b60405180910390f35b600061010d8383610637565b905060008082815260200190815260200160002060000160009054906101000a900460ff1615610172576040517f08c379a000000000000000000000000000000000000000000000000000000000815260040161016990610a70565b60405180910390fd5b600160003373ffffffffffffffffffffffffffffffffffffffff1673ffffffffffffffffffffffffffffffffffffffff16815260200190815260200160002060009054906101000a900460ff16156101ff576040517f08c379a00000000000000000000000000000000000000000000000000000000081526004016101f690610adc565b60405180910390fd5b60018060003373ffffffffffffffffffffffffffffffffffffffff1673ffffffffffffffffffffffffffffffffffffffff16815260200190815260200160002060006101000a81548160ff021916908315150217905550600060405180606001604052806001151581526020018581526020018481525090508060008084815260200190815260200160002060008201518160000160006101000a81548160ff02191690831515021790555060208201518160010190816102c09190610d12565b5060408201518160020190816102d69190610d12565b509050503373ffffffffffffffffffffffffffffffffffffffff167fdc8c7948efd57970d2239c1bd917b1aacccb1af7b9d31499bb5ed1f80a7925278585604051610322929190610de4565b60405180910390a250505050565b60016020528060005260406000206000915054906101000a900460ff1681565b600060608060006103618686610637565b9050600080600083815260200190815260200160002090508060000160009054906101000a900460ff166103be576000604051806020016040528060008152506040518060200160405280600081525094509450945050506104e9565b600181600101826002018180546103d490610b2b565b80601f016020809104026020016040519081016040528092919081815260200182805461040090610b2b565b801561044d5780601f106104225761010080835404028352916020019161044d565b820191906000526020600020905b81548152906001019060200180831161043057829003601f168201915b5050505050915080805461046090610b2b565b80601f016020809104026020016040519081016040528092919081815260200182805461048c90610b2b565b80156104d95780601f106104ae576101008083540402835291602001916104d9565b820191906000526020600020905b8154815290600101906020018083116104bc57829003601f168201915b5050505050905094509450945050505b9250925092565b60006020528060005260406000206000915090508060000160009054906101000a900460ff169080600101805461052690610b2b565b80601f016020809104026020016040519081016040528092919081815260200182805461055290610b2b565b801561059f5780601f106105745761010080835404028352916020019161059f565b820191906000526020600020905b81548152906001019060200180831161058257829003601f168201915b5050505050908060020180546105b490610b2b565b80601f01602080910402602001604051908101604052809291908181526020018280546105e090610b2b565b801561062d5780601f106106025761010080835404028352916020019161062d565b820191906000526020600020905b81548152906001019060200180831161061057829003601f168201915b5050505050905083565b6000828260405160200161064c929190610e57565b60405160208183030381529060405280519060200120905092915050565b6000604051905090565b600080fd5b600080fd5b600080fd5b600080fd5b6000601f19601f8301169050919050565b7f4e487b7100000000000000000000000000000000000000000000000000000000600052604160045260246000fd5b6106d182610688565b810181811067ffffffffffffffff821117156106f0576106ef610699565b5b80604052505050565b600061070361066a565b905061070f82826106c8565b919050565b600067ffffffffffffffff82111561072f5761072e610699565b5b61073882610688565b9050602081019050919050565b82818337600083830152505050565b600061076761076284610714565b6106f9565b90508281526020810184848401111561078357610782610683565b5b61078e848285610745565b509392505050565b600082601f8301126107ab576107aa61067e565b5b81356107bb848260208601610754565b91505092915050565b600080604083850312156107db576107da610674565b5b600083013567ffffffffffffffff8111156107f9576107f8610679565b5b61080585828601610796565b925050602083013567ffffffffffffffff81111561082657610825610679565b5b61083285828601610796565b9150509250929050565b600073ffffffffffffffffffffffffffffffffffffffff82169050919050565b60006108678261083c565b9050919050565b6108778161085c565b811461088257600080fd5b50565b6000813590506108948161086e565b92915050565b6000602082840312156108b0576108af610674565b5b60006108be84828501610885565b91505092915050565b60008115159050919050565b6108dc816108c7565b82525050565b60006020820190506108f760008301846108d3565b92915050565b600081519050919050565b600082825260208201905092915050565b60005b8381101561093757808201518184015260208101905061091c565b60008484015250505050565b600061094e826108fd565b6109588185610908565b9350610968818560208601610919565b61097181610688565b840191505092915050565b600060608201905061099160008301866108d3565b81810360208301526109a38185610943565b905081810360408301526109b78184610943565b9050949350505050565b6000819050919050565b6109d4816109c1565b81146109df57600080fd5b50565b6000813590506109f1816109cb565b92915050565b600060208284031215610a0d57610a0c610674565b5b6000610a1b848285016109e2565b91505092915050565b7f4964656e7469747920616c726561647920726567697374657265640000000000600082015250565b6000610a5a601b83610908565b9150610a6582610a24565b602082019050919050565b60006020820190508181036000830152610a8981610a4d565b9050919050565b7f4164647265737320616c72656164792072656769737465726564000000000000600082015250565b6000610ac6601a83610908565b9150610ad182610a90565b602082019050919050565b60006020820190508181036000830152610af581610ab9565b9050919050565b7f4e487b7100000000000000000000000000000000000000000000000000000000600052602260045260246000fd5b60006002820490506001821680610b4357607f821691505b602082108103610b5657610b55610afc565b5b50919050565b60008190508160005260206000209050919050565b60006020601f8301049050919050565b600082821b905092915050565b600060088302610bbe7fffffffffffffffffffffffffffffffffffffffffffffffffffffffffffffffff82610b81565b610bc88683610b81565b95508019841693508086168417925050509392505050565b6000819050919050565b6000819050919050565b6000610c0f610c0a610c0584610be0565b610bea565b610be0565b9050919050565b6000819050919050565b610c2983610bf4565b610c3d610c3582610c16565b848454610b8e565b825550505050565b600090565b610c52610c45565b610c5d818484610c20565b505050565b5b81811015610c8157610c76600082610c4a565b600181019050610c63565b5050565b601f821115610cc657610c9781610b5c565b610ca084610b71565b81016020851015610caf578190505b610cc3610cbb85610b71565b830182610c62565b50505b505050565b600082821c905092915050565b6000610ce960001984600802610ccb565b1980831691505092915050565b6000610d028383610cd8565b9150826002028217905092915050565b610d1b826108fd565b67ffffffffffffffff811115610d3457610d33610699565b5b610d3e8254610b2b565b610d49828285610c85565b600060209050601f831160018114610d7c5760008415610d6a578287015190505b610d748582610cf6565b865550610ddc565b601f198416610d8a86610b5c565b60005b82811015610db257848901518255600182019150602085019450602081019050610d8d565b86831015610dcf5784890151610dcb601f891682610cd8565b8355505b6001600288020188555050505b505050505050565b60006040820190508181036000830152610dfe8185610943565b90508181036020830152610e128184610943565b90509392505050565b600081905092915050565b6000610e31826108fd565b610e3b8185610e1b565b9350610e4b818560208601610919565b80840191505092915050565b6000610e638285610e26565b9150610e6f8284610e26565b9150819050939250505056fea26469706673582212207c003417aafab8fb0b0bafce2b8049ef810730104fcfb4127c29eccfd5fb7ea964736f6c63430008130033",
  "immutableReferences": {},
  "source": "// SPDX-License-Identifier: MIT\r\npragma solidity ^0.8.19;\r\n\r\ncontract Identity {\r\n    struct UserInfo {\r\n        bool isRegistered;\r\n        string name;\r\n        string email;\r\n    }\r\n\r\n    mapping(bytes32 => UserInfo) public users;\r\n    mapping(address => bool) public registeredAddresses;\r\n\r\n    event IdentityRegistered(address indexed user, string name, string email);\r\n\r\n    // Register an identity\r\n    function registerIdentity(string memory _name, string memory _email) public {\r\n        bytes32 key = getKey(_name, _email);\r\n\r\n        // Check if the identity is already registered\r\n        require(!users[key].isRegistered, \"Identity already registered\");\r\n\r\n        // Check if the address is already registered\r\n        require(!registeredAddresses[msg.sender], \"Address already registered\");\r\n\r\n        // Mark the address as registered\r\n        registeredAddresses[msg.sender] = true;\r\n\r\n        // Create a new UserInfo instance\r\n        UserInfo memory newUser = UserInfo({\r\n            isRegistered: true,\r\n            name: _name,\r\n            email: _email\r\n        });\r\n\r\n        // Store the new user information\r\n        users[key] = newUser;\r\n\r\n        emit IdentityRegistered(msg.sender, _name, _email);\r\n    }\r\n\r\n    // Display details of an identity\r\n    function displayDetails(string memory _name, string memory _email) public view returns (bool, string memory, string memory) {\r\n        bytes32 key = getKey(_name, _email);\r\n\r\n        // Retrieve the user information\r\n        UserInfo storage user = users[key];\r\n\r\n        // Check if user exists\r\n        if (!user.isRegistered) {\r\n            return (false, \"\", \"\"); // Return defaults if user not found\r\n        }\r\n\r\n        return (true, user.name, user.email);\r\n    }\r\n\r\n    // Function to generate unique key\r\n    function getKey(string memory _name, string memory _email) internal pure returns (bytes32) {\r\n        return keccak256(abi.encodePacked(_name, _email));\r\n    }\r\n}\r\n",
  "sourcePath": "E:\\6th SEM\\BDA\\Identity Management\\contracts\\Identity.sol",
  "compiler": {
    "name": "solc",
    "version": "0.8.19+commit.7dd6d404.Emscripten.clang"
  },
  "schemaVersion": "3.4.16",
  "updatedAt": "2024-05-24T18:13:34.152Z",
  "networkType": "ethereum",
  "devdoc": {
    "kind": "dev",
    "methods": {},
    "version": 1
  },
  "userdoc": {
    "kind": "user",
    "methods": {},
    "version": 1
  }
}